:0400000055EF00F0C8
:10000800FACF03F0FBCF04F0E9CF05F0EACF06F012
:10001800E1CF07F0E2CF08F0D9CF09F0DACF0AF044
:10002800F3CF0BF0F4CF0CF0F6CF0DF0F7CF0EF0C6
:10003800F8CF0FF0F5CF10F0F2A414D0000ED76E61
:10004800040ED66EF294010E2826000E29222A22CA
:100058002B223C2A0C0E3C6405D098EC0AF0000ECA
:100068003C6E00D041EC07F010C0F5FF0FC0F8FF60
:100078000EC0F7FF0DC0F6FF0CC0F4FF0BC0F3FF76
:100088000AC0DAFF09C0D9FF08C0E2FF07C0E1FFD4
:1000980006C0EAFF05C0E9FF04C0FBFF03C0FAFF82
:0600A8001100F0EF07F06B
:1003000000800F810F820F0206150A000001F26FB4
:1003100017C011F018C012F0FDEC08F011500001E8
:10032000EE6F000E0001E96F070E0001F26502D0CA
:10033000120012000001F251020D3D0EF324D96E9D
:10034000000EF420DA6EDF500001F36F2E50196EAC
:100350001A6A0001EE51F3C01BF01C6A1B26000E46
:100360001C2219501B5C1C50800A1D6E1A50800AFA
:100370001D58D8A025D00001E969FF0E196EFF0EA7
:100380001A6E2E501B6E1C6A19501B261A501C2206
:100390001B502C24D96E1C502D20DA6E000EDF6EFF
:1003A0002E500001F35DD8B0120001D01200000100
:1003B000F35100082E24196E19040001EE6F00D0CD
:1003C0000001F251020D3D0EF324D96E000EF4200F
:1003D000DA6EDF500001EE25196E19280001EF6F6B
:1003E000070E0001F26130D10001F251196E1A6A54
:1003F000D89019361A36020E1926000E1A223D0E12
:100400001924D96E000E1A20DA6EDF500001F06F49
:100410000001EF510001F05DD8B083D00001F05130
:1004200000080001EF250001F16F4B0E0001EA6F9B
:10043000000E0001EB6F000120EE01F0EA51D92619
:10044000EB51DA22DF50196EEAC0D9FFEBC0DAFFB8
:10045000DF5019240001F36F41D00001F151F3C0C6
:1004600019F01A6A1926000E1A222E501B6E1C6AE9
:1004700019501B5C1C50800A1D6E1A50800A1D58B2
:10048000D8B00FD00001F351010DF3502C24D96ED8
:10049000F4502D20DA6EDF50D8B41DD00001E96988
:1004A0001AD00001F351010DF3502C24D96EF450F1
:1004B0002D20DA6E0001F151F3C019F01A6A1926E5
:1004C000000E1A2219502C24E16E1A502D20E26ED3
:1004D000DFCFE7FF00D00001F30700D00001F351A8
:1004E000800A196E0001F051800A195CD8B0B5D7A6
:1004F0000001F2290001F46F070E0001F46501D03C
:10050000A3D00001F451020D3D0EF324D96E000E6C
:10051000F420DA6E0001F151DF260001F42BECD754
:1005200093D00001F0510001EF5DD8B08DD00001F3
:10053000EF5100080001F0250001F16F0001F251B8
:10054000196E1A6AD89019361A36020E1926000E3C
:100550001A223D0E19240001E76F000E1A20000137
:10056000E86F4B0E0001EC6F000E0001ED6FE7C06D
:10057000D9FFE8C0DAFFDF500001F36F2AD02E5018
:100580000001F35DD8B022D00001F351010DF3500A
:100590002C24D96EF4502D20DA6E0001F151196E21
:1005A0001A6A191E1A1E194A1A2A0001F3511B6EE3
:1005B0001C6A19501B261A501C221B502C24E16E59
:1005C0001C502D20E26EDFCFE7FF00D00001F32B9F
:1005D00000D00001F351196E1A6AECC0D9FFEDC0CA
:1005E000DAFFDF501B6E1C6A000120EE01F0EC51B7
:1005F000D926ED51DA22DF501D6E1D501B26000E4C
:100600001C2219501B5C1C50800A1E6E1A50800A56
:100610001E58D8B0B4D70001F2290001F46F070EBC
:100620000001F46501D010D00001F451020D3D0E1F
:10063000F324D96E000EF420DA6E0001F151DF5E72
:100640000001F42BECD700D00001F251020D010E95
:10065000F326000EF4223D0EF324D96E000EF42092
:10066000DA6EEEC0DFFF0001F251020D3D0EF32401
:10067000D96E000EF420DA6EDF500001F36F000E29
:100680000001F46F3AD0FF0E196EFF0E1A6E2E5055
:100690001B6E1C6A19501B261A501C220001F451B3
:1006A000F3C01DF01E6A1D26000E1E221B501D5C8D
:1006B0001E50800A1F6E1C50800A1F58D8B01AD0D6
:1006C0000001F451010DF3501724D96EF450182095
:1006D000DA6E0001F451F3C019F01A6A1926000EFF
:1006E0001A2219502C24E16E1A502D20E26EDFCF11
:1006F000E7FF00D00001F42B00D00001F45100010D
:10070000EE5DD8B0C0D70001F2290001F46F070EEA
:100710000001F46502D0120012000001F451020D34
:100720003D0EF324D96E000EF420DA6E0001F25172
:10073000020D3D0EF324E16E000EF420E26EDE5059
:10074000E618D8A40CD00001F451020D3D0EF3249C
:10075000D96E000EF420DA6EEFC0DFFF00D000018A
:10076000F42B070E0001F465D8D7120012001D6E9D
:100770002FC017F030C018F031C019F032C01AF095
:1007800033C01BF034C01CF0000E1F6E070E1F6438
:1007900001D052D01F50010DDF0EF324D96E000E90
:1007A000F420DA6E0001DF30E8320F0B126E010E1A
:1007B000136E122A02D0D8901336122EFCD7135083
:1007C0001E6E1FC012F0010E136E122A02D0D890B6
:1007D0001336122EFCD7135011140009D8B413D0BD
:1007E0001F50010DDF0EF324D96E000EF420DA6ED7
:1007F0000001DF50030B126E1250010D170EF3248F
:10080000D96E000E12D01F50010DDF0EF324D96EE9
:10081000000EF420DA6E0001DF50030B126E12504E
:10082000010D1A0EF324D96E000EF420DA6E1E505C
:10083000DF1200D01F2AAAD7000E1F6E020E1F64FF
:1008400001D037D01F50010D170EF324D96E000EC2
:10085000F420DA6EDF50126E1F50020D010EF324E9
:10086000F66E030EF420F76E0900F5CFD9FF0900EC
:10087000F5CFDAFF1250DF121F50010D1A0EF324CC
:10088000D96E000EF420DA6EDF50FF0A126E1F5090
:10089000020D010EF324F66E030EF420F76E09002C
:1008A000F5CFD9FF0900F5CFDAFF1250DF161F2A66
:1008B000C5D71D50010D070EF324F66E030EF4206C
:1008C000F76E0800F5CF12F01230E8320F0B136EFE
:1008D000010E146E132A02D0D8901436132EFCD7B2
:1008E0001D50010D070EF324F66E030EF420F76E73
:1008F0000800F5CF15F01550030B166E1650020DBB
:10090000010EF324F66E030EF420F76E0900F5CF06
:10091000D9FF0900F5CFDAFF1450DF121200000EE4
:100920001F6E1FC01EF08DD01E50010DF3501124FC
:10093000D96EF4501220DA6E2E0EDE18D8A453D0E1
:100940001E50D8B429D0FF0E166EFF0E176E1E5023
:10095000186E196A165018261750192218501124AB
:10096000D96E19501220DA6E2E0EDE18D8B414D0BB
:100970001F06FF0E166EFF0E176E1E50186E196AB8
:10098000165018261750192218501124D96E1950D4
:100990001220DA6EDF5001D0200E1D6E00D0FF0E47
:1009A000166EFF0E176E1550186E196A165018261F
:1009B000175019221F501A6E1B6A18501A5C1B50D0
:1009C000800A1C6E1950800A1C58D8B037D01F50AE
:1009D000010DF3501324D96EF4501420DA6E1D501B
:1009E0008009DF6E2BD0FF0E166EFF0E176E1550AE
:1009F000186E196A16501826175019221F501A6EB1
:100A00001B6A18501A5C1B50800A1C6E1950800A11
:100A10001C58D8B013D01E50010DF3501124D96EBC
:100A2000F4501220DA6E1F50010DF3501324E16EC2
:100A3000F4501420E26EDFCFE7FF00D01E2A1F2AF9
:100A400000D01E50010DF3501124D96EF450122025
:100A5000DA6EDF50D8A468D715501F5CD8B007D025
:100A60001F50010DF3501324D96EF4500FD0FF0E18
:100A7000166EFF0E176E1550186E196A165018264E
:100A80001750192218501324D96E19501420DA6EF9
:100A9000000EDF6E00D013C011F014C012F012006F
:100AA000120000016B51E8EC09F011C01AF012C0FD
:100AB0001BF01AC011F01BC012F0FDEC08F0115031
:100AC000206E00016751D8B422D000016A51D8A429
:100AD0001ED0000E226E000E216E22BE08D02250C3
:100AE00005E1040E215CD8B0120001D01200D00E36
:100AF0002124D96E000E2220DA6E200EDF6E214AEC
:100B0000222A22BEF4D7225001E1EBD712000001C5
:100B10006351D8B41FD0FF0E1F6EFD0E1E6E000174
:100B200066511E26000E1F222050176E186A1E5096
:100B3000175C1850800A196E1F50800A1958D8B0D7
:100B400025D0000166511E5E000E1F5A000E0001E6
:100B5000666F1CD0040E206405D0000E1F6E000EC0
:100B60001E6E14D02050176E186A171E181E174AD2
:100B7000182A040E1726000E1822171E181E174AD0
:100B8000182A17C01EF018C01FF000D0000E226EE9
:100B9000000E216E22BE08D0225037E1040E215CE7
:100BA000D8B0120001D012001E5021241C6E1F501C
:100BB00022201D6E1DBE1CD02050176E186A1750C3
:100BC0001C5C1D50800A196E1850800A1958D8B044
:100BD0000FD01C501A24D96E1D501B20DA6ED00E77
:100BE0002124E16E000E2220E26EDFCFE7FF09D064
:100BF000D00E2124D96E000E2220DA6E200EDF6E78
:100C000000D0214A222AC6D712001200A7EC08F011
:100C100000D088EC09F011C0F5F012C0F6F0000128
:100C2000F5510001F611D8B491D0000E1B6E000EE4
:100C30001C6E000E1D6E38EC09F01BC0F7F01CC0D6
:100C4000F8F060D069EC0AF081D078EC0AF07ED040
:100C5000000120EE01F0F751D926F851DA22DF50D9
:100C60005AEC0AF073D0000120EE01F0F751D926BA
:100C7000F851DA22DF5055EC0AF068D0000120EE7E
:100C800001F0F751D926F851DA22DF505FEC0AF073
:100C90005DD0000120EE01F0F751D926F851DA229B
:100CA000DF5064EC0AF052D0000120EE01F0F75161
:100CB000D926F851DA22DF506EEC0AF047D0000155
:100CC00020EE01F0F751D926F851DA22DF5073EC0B
:100CD0000AF03CD0000120EE01F0F751D926F8517E
:100CE000DA22DF503B6E32D03BC024F0256A010E81
:100CF0000001F725266E000E0001F821276E1EEC7C
:100D00000AF024D0F7C0D9FFF8C0DAFFDF50000A9C
:100D1000D8B498D7010AD8B498D7030AD8B498D7CA
:100D2000010AD8B4A0D7070AD8B4A8D7010AD8B402
:100D3000B0D7030AD8B4B8D7010AD8B4C0D7170AB5
:100D4000D8B4C8D7010AD8B4CFD700D031EC08F056
:100D500060D755EF00F0256E2050800B266E209E48
:100D6000200E2018D8A407D02650D8A404D025508F
:100D70006DEC08F012002F0E20641BD03A0E20609C
:100D800018D0D00E216EFF0E226E2050236E246AE2
:100D90002150232622502422D50E2324D96E000E62
:100DA0002420DA6EDF502610116E2550B7EC03F0C8
:100DB0001200400E20641BD05B0E206018D0BF0EC6
:100DC000216EFF0E226E2050236E246A21502326AE
:100DD00022502422E20E2324D96E010E2420DA6E42
:100DE000DF502610116E2550B7EC03F01200600E94
:100DF00020641BD07B0E206018D09F0E216EFF0E4A
:100E0000226E2050236E246A215023262250242251
:100E1000C80E2324D96E010E2420DA6EDF5026106E
:100E2000116E2550B7EC03F012002D0E2018D8A437
:100E300007D026504009116E2550B7EC03F0120080
:100E40005F0E2018D8A407D026500809116E25502F
:100E5000B7EC03F012007C0E2018D8A407D026505F
:100E60003009116E2550B7EC03F01200800E2618E1
:100E7000D8A4120026C011F02550B7EC03F01200E0
:100E800012009EA656D0C7B41BD0C7BA0BD0000E16
:100E9000356E010E366EC9CF02F0000E386E000EB0
:100EA000376E43D035C0D9FF36C0DAFFC9CFDFFF78
:100EB000354A362A374A382A38D037D0C68839D00A
:100EC000C7A01AD04D0E396E000E3A6EC9CF02F08F
:100ED00000D0000EC6B8010EC7B0010EE8A003D0C6
:100EE000016A012A01D0016A0150D8A4F2D716D0B4
:100EF000394A3A2A1AD0E2D7C5AC02D018D000D06D
:100F0000000EC6B8010EC7B0010EE8A003D0016AFA
:100F1000012A01D0016A0150D8A4F2D739C0D9FF03
:100F20003AC0DAFFDF50C96EE3D79E96C7D79E96C8
:100F300000D0A1A61200A196120012000001635178
:100F4000D8B40FD0000164510001655DD8A006D06F
:100F5000000E0001656F0001662B03D00001652BB8
:100F600000D0010E000160651DD00001615100013B
:100F7000625DD8A014D0000E0001626F00016B2BDF
:100F80000001605100016B5DD8A003D0000E00018C
:100F90006B6F000E0001656F0001666906D00001ED
:100FA000622B03D0000E00016B6F00016751D8B4B3
:100FB0001200000168510001695DD8A00DD0000E3B
:100FC0000001696F00016A51D8A402D0010E01D05E
:100FD000000E00016A6F12000001692B120012005E
:100FE00002EE00F010EEFFF0EE6AE550E150FCE199
:100FF000E250FAE101EE00F0C80EEE6AE806FDE10B
:1010000000EE60F0750EEE6AE806FDE100EE28F0F5
:10101000260EEE6AE806FDE1A80EF66E120EF76ED9
:10102000000EF86E01EEC8F010EE34F00900F5CFB6
:10103000EEFFE550E150FAE1680EF66E140EF76E21
:10104000000EF86E00EED5F010EE12F00900F5CFAC
:10105000EEFFE550E150FAE1000EF86E000106EFF8
:1010600006F0030E0001E96F51EC05F04FEC0AF0B9
:1010700011C0E7F012C0E8F0000E0001EB6F000EA7
:10108000EA6F0001EBBF0AD00001EB5125E1040E2D
:101090000001EA5DD8B0120001D012000001EA514F
:1010A0000001E725D96E0001EB510001E821DA6E5D
:1010B000DF50206E0001E951ABEC06F0020E3DEC72
:1010C0000AF00001E9516DEC08F00001EA4BEB2B4E
:1010D0000001E907D6D712001200176E1750010D54
:1010E000070EF324F66E030EF420F76E0800F5CF1A
:1010F00011F01130E8320F0B126E010E136E122A2E
:1011000002D0D8901336122EFCD71350FF0A146E5B
:101110001750010D070EF324F66E030EF420F76E40
:101120000800F5CF15F01550030B166E1650020D82
:10113000010EF324F66E030EF420F76E0900F5CFCE
:10114000D9FF0900F5CFDAFF1450DF161200520E56
:10115000D36E000E926E000E936E000E946E000E13
:10116000806E000E816E000E826E000E7F6E000E8D
:101170007E6ED58ED58CD550F80B0409D56E000E39
:10118000D76E040ED66EF184F28AF294D59AD59673
:10119000D08EF28EF28C000E126E700E116E6EEC0E
:1011A00009F0000E1F6E020E206EFF0E216E29EC5C
:1011B0000AF078EC0AF0120013C019F014C01AF00B
:1011C00011C017F012C018F00FD019C0D9FF1AC003
:1011D000DAFF17C0E1FF18C0E2FFDFCFE7FF194ACF
:1011E0001A2A174A182A00D01506D8A0160615285C
:1011F000ECE11628D8A4E9D7120011C015F012C0EE
:1012000016F003D0154A162A00D015C0D9FF16C013
:10121000DAFFDF50D8A4F6D711C013F012C014F0D3
:10122000131E141E134A142A15501324116E16503F
:101230001420126E120012003D0E116E000E126E7E
:10124000000E146E000E136E000E166E100E156E4C
:10125000D1EC09F02CC011F02DC012F0000E146E6C
:10126000000E136E2EC015F0166AD1EC09F01200B4
:101270001B501C10D8B412D01BC011F01CC012F0AF
:10128000000E136E010E146E1DC015F0166ADCEC14
:1012900008F01BC01BF01CC01CF01200000E1B6EDF
:1012A000010E1C6E120012005F7C585E7B716F7421
:1012B000040E7A3014545C7367506D781C1C2A76C7
:1012C0006E5B777F395E79713D76061E7A38153709
:1012D0003F7367336D073E3E7E766E5BF19E788886
:1012E000788C9388938C800EC76E260EC66EC58050
:1012F00011501124C86EFE0E6F6E9D86A086F28C72
:10130000F28E9E96A196000E386E000E376E120079
:10131000000E146E000E136E37503810D8A4C7B6E6
:101320000BD0C7A809D037C013F038C014F0000E96
:10133000386E000E376E00D013C011F014C012F0DA
:101340001200120022C011F023C012F06C0E136EB6
:10135000000E146E640E156E8FEC04F011C022F0B6
:1013600012C023F022C017F023C018F0205086ECE2
:1013700001F01200600E116E000E126E000E146E5F
:10138000000E136E000E166E750E156ED1EC09F080
:101390001CC019F01DC01AF01EC01BF046EC0AF06C
:1013A000120011C017F012C018F009D017C0D9FFF1
:1013B00018C0DAFF13C0DFFF174A182A00D015063D
:1013C000D8A016061528F2E11628D8A4EFD71200E7
:1013D000146E1450020D3D0EF324D96E000EF4204D
:1013E000DA6EDF50136E1350010DF3502C24116E82
:1013F000F4502D20126E12001200600E116E000EBD
:10140000126E000E146E000E136E000E166E750E28
:10141000156ED1EC09F01CEC09F01200000E186EEC
:10142000030E186402D01200120018506DEC08F080
:10143000182A030E1864F9D71200120024C020F0F5
:1014400025C021F026C022F027C023F0A2EC09F02D
:1014500012001FC01CF020C01DF021C01EF0BAEC0D
:1014600009F00EEC0AF012003F065B4F666D7D2717
:101470007F6F14160E1E1D10121A116EFA0E00F058
:10148000E82EFDD7112EFAD71200120019C02CF049
:101490001AC02DF01BC02EF01CEC09F01200D00E6B
:1014A000116E000E126E12001200126E12507DECC0
:1014B0000AF01200126E125081EC0AF01200126E45
:1014C000125085EC0AF01200126E125089EC0AF0EC
:1014D0001200FDEC09F00EEC0AF01200126E125030
:1014E0008DEC0AF01200126E125091EC0AF012000C
:1014F00095EC0AF00EEC0AF01200116E11C064F0C7
:101500001200116E11C060F01200116E11C061F076
:101510001200116E11C068F01200116E11C063F05C
:101520001200116E11C067F012001CEC09F01200DD
:061530009EEC07F0120022
:020000040020DA
:08000000FFFFFFFFFFFFFFFF00
:020000040030CA
:0E00000000281F1EFF0881FF03C003E003401D
:00000001FF
