:04000000B9EF02F062
:1003000000800F810F820F0206150A000D6E18C0C3
:1003100007F019C008F01AC009F01BC00AF01CC091
:100320000BF01DC00CF0000E0F6E070E0F6401D015
:100330004FD00F50010D100EF324D96E000EF42093
:10034000DA6EDF30E8320F0B026E010E036E022A06
:1003500002D0D8900336022EFCD703500E6E0FC089
:1003600002F0010E036E022A02D0D8900336022E4C
:10037000FCD7035001140009D8B412D00F50010D5E
:10038000100EF324D96E000EF420DA6EDF50030B4A
:10039000026E0250010D070EF324D96E000E11D02B
:1003A0000F50010D100EF324D96E000EF420DA6EFA
:1003B000DF50030B026E0250010D0A0EF324D96EBA
:1003C000000EF420DA6E0E50DF1200D00F2AADD7E7
:1003D000000E0F6E020E0F6401D037D00F50010DCA
:1003E000070EF324D96E000EF420DA6EDF50026E91
:1003F0000F50020D010EF324F66E030EF420F76E7B
:100400000900F5CFD9FF0900F5CFDAFF0250DF125E
:100410000F50010D0A0EF324D96E000EF420DA6E8F
:10042000DF50FF0A026E0F50020D010EF324F66E2C
:10043000030EF420F76E0900F5CFD9FF0900F5CFC0
:10044000DAFF0250DF160F2AC5D70D50010D070E37
:10045000F324F66E030EF420F76E0800F5CF02F0D9
:100460000230E8320F0B036E010E046E032A02D035
:10047000D8900436032EFCD70D50010D070EF3243F
:10048000F66E030EF420F76E0800F5CF05F0055068
:10049000030B066E0650020D010EF324F66E030EDA
:1004A000F420F76E0900F5CFD9FF0900F5CFDAFF88
:1004B0000450DF121200076E0750010D070EF324DF
:1004C000F66E030EF420F76E0800F5CF01F0013050
:1004D000E8320F0B026E010E036E022A02D0D89092
:1004E0000336022EFCD70350FF0A046E0750010D9D
:1004F000070EF324F66E030EF420F76E0800F5CF16
:1005000005F00550030B066E0650020D010EF32494
:10051000F66E030EF420F76E0900F5CFD9FF09003F
:10052000F5CFDAFF0450DF161200520ED36E000E24
:10053000926E000E936E000E946E000E806E000E92
:10054000816E000E826E000E7F6E000E7E6E00D0F9
:10055000000E5BEC02F0640ED6EC02F05B0E016E56
:10056000000E86EC01F0640ED6EC02F0F1D700EF3D
:1005700000F01D6A1C6A1B6A1A6A196A186AC40E9E
:10058000F66E050EF76E000EF86E00EE10F010EE2F
:1005900008F00900F5CFEEFFE550E150FAE1000E5A
:1005A000F86E030EF76E000195EF02F0026E0D0E6D
:1005B000016EFC0EE82EFED7012EFCD7022EF7D7D7
:0C05C0001200120014160E1E1D10121A5C
:020000040020DA
:08000000FFFFFFFFFFFFFFFF00
:020000040030CA
:0E00000000281F1EFF0881FF03C003E003401D
:00000001FF
